:02000000622973
:08000800B808031D08280800D8
:10001000F9300000000000000000FF3E031D092829
:1000200000000000000000000000B80B08280800D5
:1000300083120313861485110000000000000000E5
:1000400000000000000000000000000000000000B0
:100050000000000000000000851500000800831269
:10006000031386108511000000000000000000004E
:100070000000000000000000000000000000000080
:10008000000000000000851500000800BA01BB0157
:100090001030BC00851105113C08BD00BC03BD0833
:1000A00003196028B91F5628182057282F2003103D
:1000B000BA0DBB0D85183A140310B80DB90D4C28B4
:1000C000851105153A08BE003B08BF0008008312E1
:1000D0000313B801B901BA01BB013C103C18080078
:1000E000851105112F2085183C14851186100515E2
:1000F0006E280730831203139F00831681130113A8
:100100000510831205108316051183120515831639
:10011000851183128511831686108312861083162B
:1001200006148514F4308312B8000420F730B800A8
:100130008030B9004620D030B800A730B900462042
:100140002330B800C630B90046202C30B800C23089
:10015000B9004620F730B800C430B9004620A030BE
:10016000B8009630B90046208130B800CA30B900D6
:100170004620B801E030B90046200E30B800C83043
:10018000B9004620B801C030B90046208030B80020
:100190008230B900462008006720B801B030B900AD
:1001A00046203E08B800080083120313A201A301F1
:1001B000A401A501B70179200514F430B80004208A
:1001C0000510F430B80004200514F430B800042001
:1001D00005108130B800CA30B90046208330B8001D
:1001E000CA30B90046200618F328CC203808B700DA
:1001F0008313263084002208A20A8407370880006F
:10020000B70803191A29A001A1010430200221080E
:1002100003180C2903190E29A11F1A2905141930D6
:10022000B800042005101930B8000420A00A0319F2
:10023000A10A05292208113A031DF328A2018130E1
:10024000B800CA30B9004620A401A501A3011030AE
:1002500023020318362983132630840023088407D9
:100260000008A4070318A50AA30A2729A501360830
:10027000240603192508031D5729B6080319572911
:10028000A001A10104302002210803184929031903
:100290004B29A11F572905141930B8000420051057
:1002A0001930B8000420A00A0319A10A422981309C
:1002B000B800CA30B90046208330B800CA30B9004F
:1002C0004620F32883120313A001A1018A110A1208
:0202D000D42830
:02400E00103F61
:00000001FF
