:020000007E2A56
:08000800FF00030E8312031335
:10001000C6000A0EC700040EC8008A110A12852AFB
:10002000F108031D14280800F9300000000000004A
:100030000000FF3E031D1528000000000000000026
:100040000000F10B14280800FD01FE01103083169A
:100050000313A0008312051183162008A100A0033A
:10006000A10803194528FC1F3828831286143A2852
:100070008312861085150310FD0DFE0D85187D1465
:100080000310FB0DFC0D85112C28831205157D082E
:100090008316A2007E08A3000800A030FB00953064
:1000A000FC002420AC30FB00C230FC002420FB010B
:1000B000E030FC002420FB01C830FC0024204F303D
:1000C000FB00C430FC0024200330FB009830FC000F
:1000D0002420E030FB00C030FC0024200800043065
:1000E00083120313A0000830FB008230FC002420A0
:1000F000080083160313A001A101A201A301A50119
:10010000A601A701A801A401A41A08000310A50DC7
:10011000A60DA70DA80DF30DF40DF50DF60DA00D10
:10012000A10DA20DA30D7A082302031DA1287908B1
:100130002202031DA12878082102031DA1287708A7
:100140002002031CB2287708A0027808031C780F4D
:10015000A1027908031C790FA2027A08031C7A0F06
:10016000A3022514A40A8428FD01FE0183160313AB
:10017000A101A201A001201A08000310A10DA20DE7
:10018000F30DF40DFD0DFE0D76087E02031DCA2849
:1001900075087D02031CD3287508FD027608031C30
:1001A000FE03FE022114A00ABB28831603130511C7
:1001B0008312051583168511831285118316861007
:1001C000831286108316061485148312C201C83068
:1001D000F100102008007210721808008312031337
:1001E0000511861085158518721485110515EC28E2
:1001F00060307102720803180329031D032960305F
:10020000F100F2010F2972080F3C031D0929710842
:100210003F3C03180F293F30F1000F30F200710806
:100220000038FB007208A038FC00242008000230CF
:100230007202031D1D29983071020318232998307A
:10024000F1000230F20015307202031D2929183026
:100250007102031840296030F300A830F4007108DF
:10026000F5007208F600B4202108F9002208FA000F
:1002700079088038FB007A08C638FC002420080082
:10028000FC30F3004230F4000530F5000030F60099
:100290007108F7007208F800F901FA0179202508C1
:1002A000FD002608FE007D080038FB007E08C638E9
:1002B000FC0024200800D520F730FB008030FC0033
:1002C00024204D206F200800023083120313A00069
:1002D0002030FB008230FC00242008000330831211
:1002E0000313A0008030FB008230FC0024200800B3
:1002F000EB2071080038FB00B830FC002420080017
:100300000130FB00CA30FC0024208330FB00CA30DF
:10031000FC0024200800EB20FB01B030FC0024206E
:100320002208F10008006E210800642108006F20F7
:1003300008006F2008000730831203139F00831604
:100340000510831205108316811301130B168B17EA
:100350005B218030F1002530F2001721D030F10010
:100360000730F200F820080083120313EC01ED01BE
:10037000EE01EF013130F000B830F10010209B2188
:10038000E030FB00C030FC0024208312061ECA2986
:10039000C901CC290130C9004908003A0319D42900
:1003A000013A0319E529EA298021932183120514D2
:1003B000FA30F10010200510FA30F1001020051479
:1003C000FA30F10010200510EA290514F430F1008C
:1003D0001020051083124908003A0319F329013A45
:1003E0000319372AEA298B2171088312EF006F085D
:1003F000303A031DFD29EC01092A04306C02031870
:10040000092A83134C3084006C08EC0A84076F08B7
:1004100080006C08043A031DF329EC019721013098
:10042000FB00CA30FC0024208312EE01ED010330F2
:100430006D020318242A83134C3084006D0884074E
:100440000008EE07ED0A172A4F086E06031D302A32
:100450000530F100102005140530F10010200510C2
:100460008330FB00CA30FC0024209321F3290514BB
:1004700005140330F100102005100330F1001020A6
:10048000EE01F101051CF10A71180514711C05102B
:100490009521AA30F1007821AA30F1007821AA3004
:1004A000F1007821AA30F10078212D30F100782177
:1004B000D430F10078213030F10078213130F10072
:1004C000782131308312EE073230F100782132305A
:1004D0008312EE073330F100782133308312EE07B8
:1004E0006E08F10078213F30F1007821AA30F10048
:1004F0007821AA30F10078219921EA298312031387
:10050000C901CA018A110A12B4298B1C8C2A013034
:1005100083120313CB008B1083120313480E840045
:0E052000470E8A00460E8300FF0E7F0E090074
:02400E00103F61
:00000001FF
