:0200000066296F
:08000800A208031D08280800EE
:10001000F9300000000000000000FF3E031D092829
:1000200000000000000000000000A20B08280800EB
:1000300083120313861485110000000000000000E5
:1000400000000000000000000000000000000000B0
:100050000000000000000000851500000800831269
:10006000031386108511000000000000000000004E
:100070000000000000000000000000000000000080
:10008000000000000000851500000800A501A60181
:100090001030A7008511861005112708A800A703B6
:1000A000A80803196128A41F5728182058282F20B2
:1000B0000310A50DA60D851825140310A30DA40D7E
:1000C0004D288511861005152508A9002608AA00C7
:1000D000080083120313A301A401A501A6012710A0
:1000E00027180800851105112F2085182714851160
:1000F000861005157028692022080038A300B83042
:10010000A400462008000730831203139F008316C3
:100110008113011305108312051083160511831234
:100120000515831685118312851183168610831297
:100130008610831606148514F4308312A20004205E
:10014000F730A3008030A4004620D030A300A730B1
:10015000A40046202330A300C630A400462050301F
:10016000A3009830A40046208030A3009630A4005D
:1001700046200830A3008230A400462008008312E5
:100180000313A001A10183200514F430A200042070
:100190000510A001A101A201051CA20A2218051444
:1001A000221C05103830A3008230A4004620013004
:1001B000A2000420AA30A2007B202D30A2007B20C8
:1001C000D430A2007B203030A2007B203030A0074A
:1001D0000318A10A3130A2007B203130A007031898
:1001E000A10A3230A2007B203230A0070318A10AF6
:1001F0003330A2007B203330A0070318A10A34302B
:10020000A2007B203430A0070318A10A3530A200D9
:100210007B203530A0070318A10A3630A2007B20CE
:100220003630A0070318A10A3730A2007B203730F0
:10023000A0070318A10A3830A2007B203830A0079D
:100240000318A10A3930A2007B203930A007031817
:10025000A10A3A30A2007B203A30A0070318A10A75
:100260003B30A2007B203B30A0070318A10A3C30A2
:10027000A2007B203C30A0070318A10A3D30A20059
:100280007B203D30A0070318A10A3E30A2007B204E
:100290003E30A0070318A10A3F30A2007B203F3068
:1002A000A0070318A10AA1012008A2007B20AA3000
:1002B000A2007B20AA30A2007B200830A30082305D
:1002C000A40046203230A2000420C9288A110A1254
:0202D000BF2845
:02400E00103F61
:00000001FF
